{
  "_format": "hh-sol-artifact-1",
  "contractName": "ChainBattles",
  "sourceName": "contracts/ChainBattles.sol",
  "abi": [
    {
      "inputs": [],
      "stateMutability": "nonpayable",
      "type": "constructor"
    },
    {
      "anonymous": false,
      "inputs": [
        {
          "indexed": true,
          "internalType": "address",
          "name": "owner",
          "type": "address"
        },
        {
          "indexed": true,
          "internalType": "address",
          "name": "approved",
          "type": "address"
        },
        {
          "indexed": true,
          "internalType": "uint256",
          "name": "tokenId",
          "type": "uint256"
        }
      ],
      "name": "Approval",
      "type": "event"
    },
    {
      "anonymous": false,
      "inputs": [
        {
          "indexed": true,
          "internalType": "address",
          "name": "owner",
          "type": "address"
        },
        {
          "indexed": true,
          "internalType": "address",
          "name": "operator",
          "type": "address"
        },
        {
          "indexed": false,
          "internalType": "bool",
          "name": "approved",
          "type": "bool"
        }
      ],
      "name": "ApprovalForAll",
      "type": "event"
    },
    {
      "anonymous": false,
      "inputs": [
        {
          "indexed": true,
          "internalType": "address",
          "name": "from",
          "type": "address"
        },
        {
          "indexed": true,
          "internalType": "address",
          "name": "to",
          "type": "address"
        },
        {
          "indexed": true,
          "internalType": "uint256",
          "name": "tokenId",
          "type": "uint256"
        }
      ],
      "name": "Transfer",
      "type": "event"
    },
    {
      "inputs": [
        {
          "internalType": "address",
          "name": "to",
          "type": "address"
        },
        {
          "internalType": "uint256",
          "name": "tokenId",
          "type": "uint256"
        }
      ],
      "name": "approve",
      "outputs": [],
      "stateMutability": "nonpayable",
      "type": "function"
    },
    {
      "inputs": [
        {
          "internalType": "address",
          "name": "owner",
          "type": "address"
        }
      ],
      "name": "balanceOf",
      "outputs": [
        {
          "internalType": "uint256",
          "name": "",
          "type": "uint256"
        }
      ],
      "stateMutability": "view",
      "type": "function"
    },
    {
      "inputs": [
        {
          "internalType": "uint256",
          "name": "tokenId",
          "type": "uint256"
        }
      ],
      "name": "generateCharacter",
      "outputs": [
        {
          "internalType": "string",
          "name": "",
          "type": "string"
        }
      ],
      "stateMutability": "view",
      "type": "function"
    },
    {
      "inputs": [
        {
          "internalType": "uint256",
          "name": "tokenId",
          "type": "uint256"
        }
      ],
      "name": "getApproved",
      "outputs": [
        {
          "internalType": "address",
          "name": "",
          "type": "address"
        }
      ],
      "stateMutability": "view",
      "type": "function"
    },
    {
      "inputs": [
        {
          "internalType": "uint256",
          "name": "tokenId",
          "type": "uint256"
        }
      ],
      "name": "getLevels",
      "outputs": [
        {
          "internalType": "string",
          "name": "",
          "type": "string"
        }
      ],
      "stateMutability": "view",
      "type": "function"
    },
    {
      "inputs": [
        {
          "internalType": "uint256",
          "name": "tokenId",
          "type": "uint256"
        }
      ],
      "name": "getTokenURI",
      "outputs": [
        {
          "internalType": "string",
          "name": "",
          "type": "string"
        }
      ],
      "stateMutability": "view",
      "type": "function"
    },
    {
      "inputs": [
        {
          "internalType": "address",
          "name": "owner",
          "type": "address"
        },
        {
          "internalType": "address",
          "name": "operator",
          "type": "address"
        }
      ],
      "name": "isApprovedForAll",
      "outputs": [
        {
          "internalType": "bool",
          "name": "",
          "type": "bool"
        }
      ],
      "stateMutability": "view",
      "type": "function"
    },
    {
      "inputs": [],
      "name": "mint",
      "outputs": [],
      "stateMutability": "nonpayable",
      "type": "function"
    },
    {
      "inputs": [],
      "name": "name",
      "outputs": [
        {
          "internalType": "string",
          "name": "",
          "type": "string"
        }
      ],
      "stateMutability": "view",
      "type": "function"
    },
    {
      "inputs": [
        {
          "internalType": "uint256",
          "name": "tokenId",
          "type": "uint256"
        }
      ],
      "name": "ownerOf",
      "outputs": [
        {
          "internalType": "address",
          "name": "",
          "type": "address"
        }
      ],
      "stateMutability": "view",
      "type": "function"
    },
    {
      "inputs": [
        {
          "internalType": "address",
          "name": "from",
          "type": "address"
        },
        {
          "internalType": "address",
          "name": "to",
          "type": "address"
        },
        {
          "internalType": "uint256",
          "name": "tokenId",
          "type": "uint256"
        }
      ],
      "name": "safeTransferFrom",
      "outputs": [],
      "stateMutability": "nonpayable",
      "type": "function"
    },
    {
      "inputs": [
        {
          "internalType": "address",
          "name": "from",
          "type": "address"
        },
        {
          "internalType": "address",
          "name": "to",
          "type": "address"
        },
        {
          "internalType": "uint256",
          "name": "tokenId",
          "type": "uint256"
        },
        {
          "internalType": "bytes",
          "name": "_data",
          "type": "bytes"
        }
      ],
      "name": "safeTransferFrom",
      "outputs": [],
      "stateMutability": "nonpayable",
      "type": "function"
    },
    {
      "inputs": [
        {
          "internalType": "address",
          "name": "operator",
          "type": "address"
        },
        {
          "internalType": "bool",
          "name": "approved",
          "type": "bool"
        }
      ],
      "name": "setApprovalForAll",
      "outputs": [],
      "stateMutability": "nonpayable",
      "type": "function"
    },
    {
      "inputs": [
        {
          "internalType": "bytes4",
          "name": "interfaceId",
          "type": "bytes4"
        }
      ],
      "name": "supportsInterface",
      "outputs": [
        {
          "internalType": "bool",
          "name": "",
          "type": "bool"
        }
      ],
      "stateMutability": "view",
      "type": "function"
    },
    {
      "inputs": [],
      "name": "symbol",
      "outputs": [
        {
          "internalType": "string",
          "name": "",
          "type": "string"
        }
      ],
      "stateMutability": "view",
      "type": "function"
    },
    {
      "inputs": [
        {
          "internalType": "uint256",
          "name": "",
          "type": "uint256"
        }
      ],
      "name": "tokenIdToLevel",
      "outputs": [
        {
          "internalType": "uint256",
          "name": "",
          "type": "uint256"
        }
      ],
      "stateMutability": "view",
      "type": "function"
    },
    {
      "inputs": [
        {
          "internalType": "uint256",
          "name": "tokenId",
          "type": "uint256"
        }
      ],
      "name": "tokenURI",
      "outputs": [
        {
          "internalType": "string",
          "name": "",
          "type": "string"
        }
      ],
      "stateMutability": "view",
      "type": "function"
    },
    {
      "inputs": [
        {
          "internalType": "uint256",
          "name": "_tokenId",
          "type": "uint256"
        }
      ],
      "name": "train",
      "outputs": [],
      "stateMutability": "nonpayable",
      "type": "function"
    },
    {
      "inputs": [
        {
          "internalType": "address",
          "name": "from",
          "type": "address"
        },
        {
          "internalType": "address",
          "name": "to",
          "type": "address"
        },
        {
          "internalType": "uint256",
          "name": "tokenId",
          "type": "uint256"
        }
      ],
      "name": "transferFrom",
      "outputs": [],
      "stateMutability": "nonpayable",
      "type": "function"
    }
  ],
  "bytecode": "0x60806040523480156200001157600080fd5b506040518060400160405280600c81526020017f436861696e426174746c657300000000000000000000000000000000000000008152506040518060400160405280600481526020017f4342545300000000000000000000000000000000000000000000000000000000815250816000908051906020019062000096929190620000b8565b508060019080519060200190620000af929190620000b8565b505050620001cd565b828054620000c69062000168565b90600052602060002090601f016020900481019282620000ea576000855562000136565b82601f106200010557805160ff191683800117855562000136565b8280016001018555821562000136579182015b828111156200013557825182559160200191906001019062000118565b5b50905062000145919062000149565b5090565b5b80821115620001645760008160009055506001016200014a565b5090565b600060028204905060018216806200018157607f821691505b602082108114156200019857620001976200019e565b5b50919050565b7f4e487b7100000000000000000000000000000000000000000000000000000000600052602260045260246000fd5b6138f880620001dd6000396000f3fe608060405234801561001057600080fd5b50600436106101215760003560e01c806342842e0e116100ad578063b88d4fde11610071578063b88d4fde14610318578063bb86e8cd14610334578063c87b56dd14610364578063e985e9c514610394578063f43785f9146103c457610121565b806342842e0e146102625780636352211e1461027e57806370a08231146102ae57806395d89b41146102de578063a22cb465146102fc57610121565b80630daefed5116100f45780630daefed5146101c05780631249c58b146101f057806323b872dd146101fa578063368004ed146102165780633bb3a24d1461023257610121565b806301ffc9a71461012657806306fdde0314610156578063081812fc14610174578063095ea7b3146101a4575b600080fd5b610140600480360381019061013b9190612076565b6103f4565b60405161014d919061284f565b60405180910390f35b61015e6104d6565b60405161016b919061286a565b60405180910390f35b61018e600480360381019061018991906120c8565b610568565b60405161019b91906127e8565b60405180910390f35b6101be60048036038101906101b9919061203a565b6105ed565b005b6101da60048036038101906101d591906120c8565b610705565b6040516101e7919061286a565b60405180910390f35b6101f8610763565b005b610214600480360381019061020f9190611f34565b6107b3565b005b610230600480360381019061022b91906120c8565b610813565b005b61024c600480360381019061024791906120c8565b6108ed565b604051610259919061286a565b60405180910390f35b61027c60048036038101906102779190611f34565b610955565b005b610298600480360381019061029391906120c8565b610975565b6040516102a591906127e8565b60405180910390f35b6102c860048036038101906102c39190611ecf565b610a27565b6040516102d59190612aac565b60405180910390f35b6102e6610adf565b6040516102f3919061286a565b60405180910390f35b61031660048036038101906103119190611ffe565b610b71565b005b610332600480360381019061032d9190611f83565b610b87565b005b61034e600480360381019061034991906120c8565b610be9565b60405161035b9190612aac565b60405180910390f35b61037e600480360381019061037991906120c8565b610c01565b60405161038b919061286a565b60405180910390f35b6103ae60048036038101906103a99190611ef8565b610d53565b6040516103bb919061284f565b60405180910390f35b6103de60048036038101906103d991906120c8565b610de7565b6040516103eb919061286a565b60405180910390f35b60007f80ac58cd000000000000000000000000000000000000000000000000000000007bffffffffffffffffffffffffffffffffffffffffffffffffffffffff1916827bffffffffffffffffffffffffffffffffffffffffffffffffffffffff191614806104bf57507f5b5e139f000000000000000000000000000000000000000000000000000000007bffffffffffffffffffffffffffffffffffffffffffffffffffffffff1916827bffffffffffffffffffffffffffffffffffffffffffffffffffffffff1916145b806104cf57506104ce82610e12565b5b9050919050565b6060600080546104e590612d2b565b80601f016020809104026020016040519081016040528092919081815260200182805461051190612d2b565b801561055e5780601f106105335761010080835404028352916020019161055e565b820191906000526020600020905b81548152906001019060200180831161054157829003601f168201915b5050505050905090565b600061057382610e7c565b6105b2576040517f08c379a00000000000000000000000000000000000000000000000000000000081526004016105a990612a2c565b60405180910390fd5b6004600083815260200190815260200160002060009054906101000a900473ffffffffffffffffffffffffffffffffffffffff169050919050565b60006105f882610975565b90508073ffffffffffffffffffffffffffffffffffffffff168373ffffffffffffffffffffffffffffffffffffffff161415610669576040517f08c379a000000000000000000000000000000000000000000000000000000000815260040161066090612a6c565b60405180910390fd5b8073ffffffffffffffffffffffffffffffffffffffff16610688610ee8565b73ffffffffffffffffffffffffffffffffffffffff1614806106b757506106b6816106b1610ee8565b610d53565b5b6106f6576040517f08c379a00000000000000000000000000000000000000000000000000000000081526004016106ed9061296c565b60405180910390fd5b6107008383610ef0565b505050565b6060600061071283610de7565b60405160200161072291906126ae565b604051602081830303815290604052905061073c81610fa9565b60405160200161074c91906127c6565b604051602081830303815290604052915050919050565b61076d6007611133565b60006107796007611149565b90506107853382611157565b600060086000838152602001908152602001600020819055506107b0816107ab836108ed565b611175565b50565b6107c46107be610ee8565b826111e9565b610803576040517f08c379a00000000000000000000000000000000000000000000000000000000081526004016107fa90612a8c565b60405180910390fd5b61080e8383836112c7565b505050565b61081c81610e7c565b61082557600080fd5b3373ffffffffffffffffffffffffffffffffffffffff1661084582610975565b73ffffffffffffffffffffffffffffffffffffffff161461089b576040517f08c379a0000000000000000000000000000000000000000000000000000000008152600401610892906128ec565b60405180910390fd5b6000600860008381526020019081526020016000205490506001816108c09190612b60565b60086000848152602001908152602001600020819055506108e9826108e4846108ed565b611175565b5050565b606060006108fa8361152e565b61090384610705565b604051602001610914929190612733565b604051602081830303815290604052905061092e81610fa9565b60405160200161093e91906127a4565b604051602081830303815290604052915050919050565b61097083838360405180602001604052806000815250610b87565b505050565b6000806002600084815260200190815260200160002060009054906101000a900473ffffffffffffffffffffffffffffffffffffffff169050600073ffffffffffffffffffffffffffffffffffffffff168173ffffffffffffffffffffffffffffffffffffffff161415610a1e576040517f08c379a0000000000000000000000000000000000000000000000000000000008152600401610a15906129ac565b60405180910390fd5b80915050919050565b60008073ffffffffffffffffffffffffffffffffffffffff168273ffffffffffffffffffffffffffffffffffffffff161415610a98576040517f08c379a0000000000000000000000000000000000000000000000000000000008152600401610a8f9061298c565b60405180910390fd5b600360008373ffffffffffffffffffffffffffffffffffffffff1673ffffffffffffffffffffffffffffffffffffffff168152602001908152602001600020549050919050565b606060018054610aee90612d2b565b80601f0160208091040260200160405190810160405280929190818152602001828054610b1a90612d2b565b8015610b675780601f10610b3c57610100808354040283529160200191610b67565b820191906000526020600020905b815481529060010190602001808311610b4a57829003601f168201915b5050505050905090565b610b83610b7c610ee8565b83836116db565b5050565b610b98610b92610ee8565b836111e9565b610bd7576040517f08c379a0000000000000000000000000000000000000000000000000000000008152600401610bce90612a8c565b60405180910390fd5b610be384848484611848565b50505050565b60086020528060005260406000206000915090505481565b6060610c0c82610e7c565b610c4b576040517f08c379a0000000000000000000000000000000000000000000000000000000008152600401610c4290612a0c565b60405180910390fd5b6000600660008481526020019081526020016000208054610c6b90612d2b565b80601f0160208091040260200160405190810160405280929190818152602001828054610c9790612d2b565b8015610ce45780601f10610cb957610100808354040283529160200191610ce4565b820191906000526020600020905b815481529060010190602001808311610cc757829003601f168201915b505050505090506000610cf56118a4565b9050600081511415610d0b578192505050610d4e565b600082511115610d40578082604051602001610d2892919061268a565b60405160208183030381529060405292505050610d4e565b610d49846118bb565b925050505b919050565b6000600560008473ffffffffffffffffffffffffffffffffffffffff1673ffffffffffffffffffffffffffffffffffffffff16815260200190815260200160002060008373ffffffffffffffffffffffffffffffffffffffff1673ffffffffffffffffffffffffffffffffffffffff16815260200190815260200160002060009054906101000a900460ff16905092915050565b6060600060086000848152602001908152602001600020549050610e0a8161152e565b915050919050565b60007f01ffc9a7000000000000000000000000000000000000000000000000000000007bffffffffffffffffffffffffffffffffffffffffffffffffffffffff1916827bffffffffffffffffffffffffffffffffffffffffffffffffffffffff1916149050919050565b60008073ffffffffffffffffffffffffffffffffffffffff166002600084815260200190815260200160002060009054906101000a900473ffffffffffffffffffffffffffffffffffffffff1673ffffffffffffffffffffffffffffffffffffffff1614159050919050565b600033905090565b816004600083815260200190815260200160002060006101000a81548173ffffffffffffffffffffffffffffffffffffffff021916908373ffffffffffffffffffffffffffffffffffffffff160217905550808273ffffffffffffffffffffffffffffffffffffffff16610f6383610975565b73ffffffffffffffffffffffffffffffffffffffff167f8c5be1e5ebec7d5bd14f71427d1e84f3dd0314c0f7b2291e5b200ac8c7c3b92560405160405180910390a45050565b6060600082511415610fcc5760405180602001604052806000815250905061112e565b60006040518060600160405280604081526020016138836040913990506000600360028551610ffb9190612b60565b6110059190612bb6565b60046110119190612be7565b67ffffffffffffffff811115611050577f4e487b7100000000000000000000000000000000000000000000000000000000600052604160045260246000fd5b6040519080825280601f01601f1916602001820160405280156110825781602001600182028036833780820191505090505b509050600182016020820185865187015b808210156110ee576003820191508151603f8160121c168501518453600184019350603f81600c1c168501518453600184019350603f8160061c168501518453600184019350603f8116850151845360018401935050611093565b505060038651066001811461110a576002811461111d57611125565b603d6001830353603d6002830353611125565b603d60018303535b50505080925050505b919050565b6001816000016000828254019250508190555050565b600081600001549050919050565b611171828260405180602001604052806000815250611962565b5050565b61117e82610e7c565b6111bd576040517f08c379a00000000000000000000000000000000000000000000000000000000081526004016111b4906129cc565b60405180910390fd5b806006600084815260200190815260200160002090805190602001906111e4929190611d5b565b505050565b60006111f482610e7c565b611233576040517f08c379a000000000000000000000000000000000000000000000000000000000815260040161122a9061294c565b60405180910390fd5b600061123e83610975565b90508073ffffffffffffffffffffffffffffffffffffffff168473ffffffffffffffffffffffffffffffffffffffff161480611280575061127f8185610d53565b5b806112be57508373ffffffffffffffffffffffffffffffffffffffff166112a684610568565b73ffffffffffffffffffffffffffffffffffffffff16145b91505092915050565b8273ffffffffffffffffffffffffffffffffffffffff166112e782610975565b73ffffffffffffffffffffffffffffffffffffffff161461133d576040517f08c379a0000000000000000000000000000000000000000000000000000000008152600401611334906128ac565b60405180910390fd5b600073ffffffffffffffffffffffffffffffffffffffff168273ffffffffffffffffffffffffffffffffffffffff1614156113ad576040517f08c379a00000000000000000000000000000000000000000000000000000000081526004016113a49061290c565b60405180910390fd5b6113b88383836119bd565b6113c3600082610ef0565b6001600360008573ffffffffffffffffffffffffffffffffffffffff1673ffffffffffffffffffffffffffffffffffffffff16815260200190815260200160002060008282546114139190612c41565b925050819055506001600360008473ffffffffffffffffffffffffffffffffffffffff1673ffffffffffffffffffffffffffffffffffffffff168152602001908152602001600020600082825461146a9190612b60565b92505081905550816002600083815260200190815260200160002060006101000a81548173ffffffffffffffffffffffffffffffffffffffff021916908373ffffffffffffffffffffffffffffffffffffffff160217905550808273ffffffffffffffffffffffffffffffffffffffff168473ffffffffffffffffffffffffffffffffffffffff167fddf252ad1be2c89b69c2b068fc378daa952ba7f163c4a11628f55a4df523b3ef60405160405180910390a46115298383836119c2565b505050565b60606000821415611576576040518060400160405280600181526020017f300000000000000000000000000000000000000000000000000000000000000081525090506116d6565b600082905060005b600082146115a857808061159190612d8e565b915050600a826115a19190612bb6565b915061157e565b60008167ffffffffffffffff8111156115ea577f4e487b7100000000000000000000000000000000000000000000000000000000600052604160045260246000fd5b6040519080825280601f01601f19166020018201604052801561161c5781602001600182028036833780820191505090505b5090505b600085146116cf576001826116359190612c41565b9150600a856116449190612dd7565b60306116509190612b60565b60f81b81838151811061168c577f4e487b7100000000000000000000000000000000000000000000000000000000600052603260045260246000fd5b60200101907effffffffffffffffffffffffffffffffffffffffffffffffffffffffffffff1916908160001a905350600a856116c89190612bb6565b9450611620565b8093505050505b919050565b8173ffffffffffffffffffffffffffffffffffffffff168373ffffffffffffffffffffffffffffffffffffffff16141561174a576040517f08c379a00000000000000000000000000000000000000000000000000000000081526004016117419061292c565b60405180910390fd5b80600560008573ffffffffffffffffffffffffffffffffffffffff1673ffffffffffffffffffffffffffffffffffffffff16815260200190815260200160002060008473ffffffffffffffffffffffffffffffffffffffff1673ffffffffffffffffffffffffffffffffffffffff16815260200190815260200160002060006101000a81548160ff0219169083151502179055508173ffffffffffffffffffffffffffffffffffffffff168373ffffffffffffffffffffffffffffffffffffffff167f17307eab39ab6107e8899845ad3d59bd9653f200f220920489ca2b5937696c318360405161183b919061284f565b60405180910390a3505050565b6118538484846112c7565b61185f848484846119c7565b61189e576040517f08c379a00000000000000000000000000000000000000000000000000000000081526004016118959061288c565b60405180910390fd5b50505050565b606060405180602001604052806000815250905090565b60606118c682610e7c565b611905576040517f08c379a00000000000000000000000000000000000000000000000000000000081526004016118fc90612a4c565b60405180910390fd5b600061190f6118a4565b9050600081511161192f576040518060200160405280600081525061195a565b806119398461152e565b60405160200161194a92919061268a565b6040516020818303038152906040525b915050919050565b61196c8383611b5e565b61197960008484846119c7565b6119b8576040517f08c379a00000000000000000000000000000000000000000000000000000000081526004016119af9061288c565b60405180910390fd5b505050565b505050565b505050565b60006119e88473ffffffffffffffffffffffffffffffffffffffff16611d38565b15611b51578373ffffffffffffffffffffffffffffffffffffffff1663150b7a02611a11610ee8565b8786866040518563ffffffff1660e01b8152600401611a339493929190612803565b602060405180830381600087803b158015611a4d57600080fd5b505af1925050508015611a7e57506040513d601f19601f82011682018060405250810190611a7b919061209f565b60015b611b01573d8060008114611aae576040519150601f19603f3d011682016040523d82523d6000602084013e611ab3565b606091505b50600081511415611af9576040517f08c379a0000000000000000000000000000000000000000000000000000000008152600401611af09061288c565b60405180910390fd5b805181602001fd5b63150b7a0260e01b7bffffffffffffffffffffffffffffffffffffffffffffffffffffffff1916817bffffffffffffffffffffffffffffffffffffffffffffffffffffffff191614915050611b56565b600190505b949350505050565b600073ffffffffffffffffffffffffffffffffffffffff168273ffffffffffffffffffffffffffffffffffffffff161415611bce576040517f08c379a0000000000000000000000000000000000000000000000000000000008152600401611bc5906129ec565b60405180910390fd5b611bd781610e7c565b15611c17576040517f08c379a0000000000000000000000000000000000000000000000000000000008152600401611c0e906128cc565b60405180910390fd5b611c23600083836119bd565b6001600360008473ffffffffffffffffffffffffffffffffffffffff1673ffffffffffffffffffffffffffffffffffffffff1681526020019081526020016000206000828254611c739190612b60565b92505081905550816002600083815260200190815260200160002060006101000a81548173ffffffffffffffffffffffffffffffffffffffff021916908373ffffffffffffffffffffffffffffffffffffffff160217905550808273ffffffffffffffffffffffffffffffffffffffff16600073ffffffffffffffffffffffffffffffffffffffff167fddf252ad1be2c89b69c2b068fc378daa952ba7f163c4a11628f55a4df523b3ef60405160405180910390a4611d34600083836119c2565b5050565b6000808273ffffffffffffffffffffffffffffffffffffffff163b119050919050565b828054611d6790612d2b565b90600052602060002090601f016020900481019282611d895760008555611dd0565b82601f10611da257805160ff1916838001178555611dd0565b82800160010185558215611dd0579182015b82811115611dcf578251825591602001919060010190611db4565b5b509050611ddd9190611de1565b5090565b5b80821115611dfa576000816000905550600101611de2565b5090565b6000611e11611e0c84612aec565b612ac7565b905082815260208101848484011115611e2957600080fd5b611e34848285612ce9565b509392505050565b600081359050611e4b81613826565b92915050565b600081359050611e608161383d565b92915050565b600081359050611e7581613854565b92915050565b600081519050611e8a81613854565b92915050565b600082601f830112611ea157600080fd5b8135611eb1848260208601611dfe565b91505092915050565b600081359050611ec98161386b565b92915050565b600060208284031215611ee157600080fd5b6000611eef84828501611e3c565b91505092915050565b60008060408385031215611f0b57600080fd5b6000611f1985828601611e3c565b9250506020611f2a85828601611e3c565b9150509250929050565b600080600060608486031215611f4957600080fd5b6000611f5786828701611e3c565b9350506020611f6886828701611e3c565b9250506040611f7986828701611eba565b9150509250925092565b60008060008060808587031215611f9957600080fd5b6000611fa787828801611e3c565b9450506020611fb887828801611e3c565b9350506040611fc987828801611eba565b925050606085013567ffffffffffffffff811115611fe657600080fd5b611ff287828801611e90565b91505092959194509250565b6000806040838503121561201157600080fd5b600061201f85828601611e3c565b925050602061203085828601611e51565b9150509250929050565b6000806040838503121561204d57600080fd5b600061205b85828601611e3c565b925050602061206c85828601611eba565b9150509250929050565b60006020828403121561208857600080fd5b600061209684828501611e66565b91505092915050565b6000602082840312156120b157600080fd5b60006120bf84828501611e7b565b91505092915050565b6000602082840312156120da57600080fd5b60006120e884828501611eba565b91505092915050565b6120fa81612c75565b82525050565b61210981612c87565b82525050565b600061211a82612b1d565b6121248185612b33565b9350612134818560208601612cf8565b61213d81612ec4565b840191505092915050565b600061215382612b28565b61215d8185612b44565b935061216d818560208601612cf8565b61217681612ec4565b840191505092915050565b600061218c82612b28565b6121968185612b55565b93506121a6818560208601612cf8565b80840191505092915050565b60006121bf602283612b55565b91506121ca82612ed5565b602282019050919050565b60006121e2603283612b44565b91506121ed82612f24565b604082019050919050565b6000612205600283612b55565b915061221082612f73565b600282019050919050565b6000612228602583612b44565b915061223382612f9c565b604082019050919050565b600061224b601c83612b44565b915061225682612feb565b602082019050919050565b600061226e602283612b44565b915061227982613014565b604082019050919050565b6000612291603083612b55565b915061229c82613063565b603082019050919050565b60006122b4606283612b55565b91506122bf826130b2565b606282019050919050565b60006122d7601883612b55565b91506122e28261314d565b601882019050919050565b60006122fa600883612b55565b915061230582613176565b600882019050919050565b600061231d602483612b44565b91506123288261319f565b604082019050919050565b6000612340601983612b44565b915061234b826131ee565b602082019050919050565b6000612363605383612b55565b915061236e82613217565b605382019050919050565b6000612386602c83612b44565b91506123918261328c565b604082019050919050565b60006123a9603883612b44565b91506123b4826132db565b604082019050919050565b60006123cc600183612b55565b91506123d78261332a565b600182019050919050565b60006123ef602a83612b44565b91506123fa82613353565b604082019050919050565b6000612412602983612b44565b915061241d826133a2565b604082019050919050565b6000612435602e83612b44565b9150612440826133f1565b604082019050919050565b6000612458600783612b55565b915061246382613440565b600782019050919050565b600061247b600783612b55565b915061248682613469565b600782019050919050565b600061249e602083612b44565b91506124a982613492565b602082019050919050565b60006124c1600183612b55565b91506124cc826134bb565b600182019050919050565b60006124e4603183612b44565b91506124ef826134e4565b604082019050919050565b6000612507602c83612b44565b915061251282613533565b604082019050919050565b600061252a602f83612b44565b915061253582613582565b604082019050919050565b600061254d600183612b55565b9150612558826135d1565b600182019050919050565b6000612570602183612b44565b915061257b826135fa565b604082019050919050565b6000612593604a83612b55565b915061259e82613649565b604a82019050919050565b60006125b6601d83612b55565b91506125c1826136be565b601d82019050919050565b60006125d9605383612b55565b91506125e4826136e7565b605382019050919050565b60006125fc603183612b44565b91506126078261375c565b604082019050919050565b600061261f600a83612b55565b915061262a826137ab565b600a82019050919050565b6000612642600683612b55565b915061264d826137d4565b600682019050919050565b6000612665601a83612b55565b9150612670826137fd565b601a82019050919050565b61268481612cdf565b82525050565b60006126968285612181565b91506126a28284612181565b91508190509392505050565b60006126b9826122a7565b91506126c482612586565b91506126cf82612284565b91506126da82612356565b91506126e58261244b565b91506126f08261246e565b91506126fb826125cc565b9150612706826122ed565b91506127128284612181565b915061271d8261246e565b915061272882612635565b915081905092915050565b600061273e82612540565b9150612749826122ca565b91506127558285612181565b9150612760826121f8565b915061276b826121b2565b915061277682612612565b91506127828284612181565b915061278d826123bf565b9150612798826124b4565b91508190509392505050565b60006127af826125a9565b91506127bb8284612181565b915081905092915050565b60006127d182612658565b91506127dd8284612181565b915081905092915050565b60006020820190506127fd60008301846120f1565b92915050565b600060808201905061281860008301876120f1565b61282560208301866120f1565b612832604083018561267b565b8181036060830152612844818461210f565b905095945050505050565b60006020820190506128646000830184612100565b92915050565b600060208201905081810360008301526128848184612148565b905092915050565b600060208201905081810360008301526128a5816121d5565b9050919050565b600060208201905081810360008301526128c58161221b565b9050919050565b600060208201905081810360008301526128e58161223e565b9050919050565b6000602082019050818103600083015261290581612261565b9050919050565b6000602082019050818103600083015261292581612310565b9050919050565b6000602082019050818103600083015261294581612333565b9050919050565b6000602082019050818103600083015261296581612379565b9050919050565b600060208201905081810360008301526129858161239c565b9050919050565b600060208201905081810360008301526129a5816123e2565b9050919050565b600060208201905081810360008301526129c581612405565b9050919050565b600060208201905081810360008301526129e581612428565b9050919050565b60006020820190508181036000830152612a0581612491565b9050919050565b60006020820190508181036000830152612a25816124d7565b9050919050565b60006020820190508181036000830152612a45816124fa565b9050919050565b60006020820190508181036000830152612a658161251d565b9050919050565b60006020820190508181036000830152612a8581612563565b9050919050565b60006020820190508181036000830152612aa5816125ef565b9050919050565b6000602082019050612ac1600083018461267b565b92915050565b6000612ad1612ae2565b9050612add8282612d5d565b919050565b6000604051905090565b600067ffffffffffffffff821115612b0757612b06612e95565b5b612b1082612ec4565b9050602081019050919050565b600081519050919050565b600081519050919050565b600082825260208201905092915050565b600082825260208201905092915050565b600081905092915050565b6000612b6b82612cdf565b9150612b7683612cdf565b9250827fffffffffffffffffffffffffffffffffffffffffffffffffffffffffffffffff03821115612bab57612baa612e08565b5b828201905092915050565b6000612bc182612cdf565b9150612bcc83612cdf565b925082612bdc57612bdb612e37565b5b828204905092915050565b6000612bf282612cdf565b9150612bfd83612cdf565b9250817fffffffffffffffffffffffffffffffffffffffffffffffffffffffffffffffff0483118215151615612c3657612c35612e08565b5b828202905092915050565b6000612c4c82612cdf565b9150612c5783612cdf565b925082821015612c6a57612c69612e08565b5b828203905092915050565b6000612c8082612cbf565b9050919050565b60008115159050919050565b60007fffffffff0000000000000000000000000000000000000000000000000000000082169050919050565b600073ffffffffffffffffffffffffffffffffffffffff82169050919050565b6000819050919050565b82818337600083830152505050565b60005b83811015612d16578082015181840152602081019050612cfb565b83811115612d25576000848401525b50505050565b60006002820490506001821680612d4357607f821691505b60208210811415612d5757612d56612e66565b5b50919050565b612d6682612ec4565b810181811067ffffffffffffffff82111715612d8557612d84612e95565b5b80604052505050565b6000612d9982612cdf565b91507fffffffffffffffffffffffffffffffffffffffffffffffffffffffffffffffff821415612dcc57612dcb612e08565b5b600182019050919050565b6000612de282612cdf565b9150612ded83612cdf565b925082612dfd57612dfc612e37565b5b828206905092915050565b7f4e487b7100000000000000000000000000000000000000000000000000000000600052601160045260246000fd5b7f4e487b7100000000000000000000000000000000000000000000000000000000600052601260045260246000fd5b7f4e487b7100000000000000000000000000000000000000000000000000000000600052602260045260246000fd5b7f4e487b7100000000000000000000000000000000000000000000000000000000600052604160045260246000fd5b6000601f19601f8301169050919050565b7f226465736372697074696f6e223a2022426174746c6573206f6e20636861696e60008201527f222c000000000000000000000000000000000000000000000000000000000000602082015250565b7f4552433732313a207472616e7366657220746f206e6f6e20455243373231526560008201527f63656976657220696d706c656d656e7465720000000000000000000000000000602082015250565b7f222c000000000000000000000000000000000000000000000000000000000000600082015250565b7f4552433732313a207472616e736665722066726f6d20696e636f72726563742060008201527f6f776e6572000000000000000000000000000000000000000000000000000000602082015250565b7f4552433732313a20746f6b656e20616c7265616479206d696e74656400000000600082015250565b7f596f75206d757374206f776e2074686973204e465420746f20747261696e206960008201527f7421000000000000000000000000000000000000000000000000000000000000602082015250565b7f3c726563742077696474683d223130302522206865696768743d22313030252260008201527f2066696c6c3d22626c61636b22202f3e00000000000000000000000000000000602082015250565b7f3c73766720786d6c6e733d22687474703a2f2f7777772e77332e6f72672f323060008201527f30302f73766722207072657365727665417370656374526174696f3d22784d6960208201527f6e594d696e206d656574222076696577426f783d22302030203335302033353060408201527f223e000000000000000000000000000000000000000000000000000000000000606082015250565b7f226e616d65223a2022436861696e20426174746c657320230000000000000000600082015250565b7f4c6576656c733a20000000000000000000000000000000000000000000000000600082015250565b7f4552433732313a207472616e7366657220746f20746865207a65726f2061646460008201527f7265737300000000000000000000000000000000000000000000000000000000602082015250565b7f4552433732313a20617070726f766520746f2063616c6c657200000000000000600082015250565b7f3c7465787420783d223530252220793d223430252220636c6173733d2262617360008201527f652220646f6d696e616e742d626173656c696e653d226d6964646c652220746560208201527f78742d616e63686f723d226d6964646c65223e00000000000000000000000000604082015250565b7f4552433732313a206f70657261746f7220717565727920666f72206e6f6e657860008201527f697374656e7420746f6b656e0000000000000000000000000000000000000000602082015250565b7f4552433732313a20617070726f76652063616c6c6572206973206e6f74206f7760008201527f6e6572206e6f7220617070726f76656420666f7220616c6c0000000000000000602082015250565b7f2200000000000000000000000000000000000000000000000000000000000000600082015250565b7f4552433732313a2062616c616e636520717565727920666f7220746865207a6560008201527f726f206164647265737300000000000000000000000000000000000000000000602082015250565b7f4552433732313a206f776e657220717565727920666f72206e6f6e657869737460008201527f656e7420746f6b656e0000000000000000000000000000000000000000000000602082015250565b7f45524337323155524953746f726167653a2055524920736574206f66206e6f6e60008201527f6578697374656e7420746f6b656e000000000000000000000000000000000000602082015250565b7f57617272696f7200000000000000000000000000000000000000000000000000600082015250565b7f3c2f746578743e00000000000000000000000000000000000000000000000000600082015250565b7f4552433732313a206d696e7420746f20746865207a65726f2061646472657373600082015250565b7f7d00000000000000000000000000000000000000000000000000000000000000600082015250565b7f45524337323155524953746f726167653a2055524920717565727920666f722060008201527f6e6f6e6578697374656e7420746f6b656e000000000000000000000000000000602082015250565b7f4552433732313a20617070726f76656420717565727920666f72206e6f6e657860008201527f697374656e7420746f6b656e0000000000000000000000000000000000000000602082015250565b7f4552433732314d657461646174613a2055524920717565727920666f72206e6f60008201527f6e6578697374656e7420746f6b656e0000000000000000000000000000000000602082015250565b7f7b00000000000000000000000000000000000000000000000000000000000000600082015250565b7f4552433732313a20617070726f76616c20746f2063757272656e74206f776e6560008201527f7200000000000000000000000000000000000000000000000000000000000000602082015250565b7f3c7374796c653e2e62617365207b2066696c6c3a2077686974653b20666f6e7460008201527f2d66616d696c793a2073657269663b20666f6e742d73697a653a20313470783b60208201527f207d3c2f7374796c653e00000000000000000000000000000000000000000000604082015250565b7f646174613a6170706c69636174696f6e2f6a736f6e3b6261736536342c000000600082015250565b7f3c7465787420783d223530252220793d223530252220636c6173733d2262617360008201527f652220646f6d696e616e742d626173656c696e653d226d6964646c652220746560208201527f78742d616e63686f723d226d6964646c65223e00000000000000000000000000604082015250565b7f4552433732313a207472616e736665722063616c6c6572206973206e6f74206f60008201527f776e6572206e6f7220617070726f766564000000000000000000000000000000602082015250565b7f22696d616765223a202200000000000000000000000000000000000000000000600082015250565b7f3c2f7376673e0000000000000000000000000000000000000000000000000000600082015250565b7f646174613a696d6167652f7376672b786d6c3b6261736536342c000000000000600082015250565b61382f81612c75565b811461383a57600080fd5b50565b61384681612c87565b811461385157600080fd5b50565b61385d81612c93565b811461386857600080fd5b50565b61387481612cdf565b811461387f57600080fd5b5056fe4142434445464748494a4b4c4d4e4f505152535455565758595a6162636465666768696a6b6c6d6e6f707172737475767778797a303132333435363738392b2fa264697066735822122002d7bc9b0bbefff2b9a43c1796d55b9cc0b4588e232687af6f962501f313d7c364736f6c63430008040033",
  "linkReferences": {},
  "deployedLinkReferences": {}
}